:100000000C942A000C9447000C9447000C94470071
:100010000C9447000C9447000C9447000C94470044
:100020000C9447000C9447000C9447000C94470034
:100030000C9447000C9447000C9447000C94470024
:100040000C9447000C9447000C9447000C94470014
:100050000C94470011241FBECFE5D4E0DEBFCDBF16
:1000600012E0A0E6B0E0E8E5F0E102C005900D92F4
:10007000A03EB107D9F724E0A0EEB2E001C01D9286
:10008000A031B207E1F70E9417070C942A080C94DC
:1000900000008F939F9388E290E071D080E382BB51
:1000A000939A939887E290E063D08F939F9388EE22
:1000B00093E05ED09F918F9180E382BB939A939857
:1000C00087E290E055D08F939F9388EE93E050D0D5
:1000D0009F918F9180E282BB939A939887E290E000
:1000E00047D08F939F9388EE93E042D09F918F915A
:1000F00088E20CD08CE00AD081E008D08AEF95E04D
:1001000037D086E003D09F918F9108958F939F936E
:10011000929810D087E290E02BD09F918F91089514
:100120008F939F93929A06D08BE290E021D09F917B
:100130008F9108958F939F9380E797E119D09F91B6
:100140008F918F9390B39F70807F890F82BB939A1A
:1001500093988F939F9380E797E10AD09F918F9117
:100160008F918295807F890F82BB939A939808958F
:1001700001970000000000000000D1F708958F9360
:100180009F9386EE93E0F4DF9F918F910197B9F7EB
:100190000895AF92BF92CF92DF92EF92FF920F93AA
:1001A0001F93CF93DF93EC015B016901452B21F491
:1001B00062EC70E00E94D907B501CE010E94D90718
:1001C000F6018081882319F165EC70E0CE010E9470
:1001D000D90767EC70E0CE010E94D907B601CE01C5
:1001E0000E94D90767EC70E0CE010E94D907EF2882
:1001F00071F069EC70E0CE010E94D907B801CE0120
:100200000E94D9076BEC70E0CE010E94D90766ED21
:1002100070E0CE01DF91CF911F910F91FF90EF9091
:10022000DF90CF90BF90AF900C94D9071BB888E1B6
:100230008AB910BC83E389B986E880BD08955D9BC7
:10024000FECF8CB908955F9BFECF8CB10895CF93FC
:10025000DF93EC0189918A3019F00E941F01FACFD7
:100260008AE0DF91CF910C941F010F931F93CF93DE
:10027000DF93EC010E9423018E01F801EC1BFD0BC2
:100280008A3031F0F80181938F010E942301F5CF6C
:10029000EC0FFD1F8083CE01DF91CF911F910F9155
:1002A0000C942701CF93DF93CDB7DEB7E2970FB65B
:1002B000F894DEBF0FBECDBF1A821982FE013396BD
:1002C00080E3DF011D928A95E9F7CE0101960E9435
:1002D00035016DEC70E0CE0101960E94E407E296D4
:1002E0000FB6F894DEBF0FBECDBFDF91CF9108955A
:1002F0001F93CF93DF93CDB7DEB7C456D1090FB6A6
:10030000F894DEBF0FBECDBF1CAA1BAA10E3FE01EE
:10031000F596DF01812F1D928A95E9F7CE01C396EC
:100320000E9435011A821982FE013396DF011D9267
:100330001A95E9F7F09680E090E00196219122323B
:10034000E1F7E3E3F0E0EC0FFD1FE80FF91FDE013A
:100350001196CD012191223211F02D93FBCF0E94F5
:10036000BB07CC59DF4F0FB6F894DEBF0FBECDBF31
:10037000DF91CF911F910895AF92BF92DF92EF92DC
:10038000FF920F931F93CF93DF93CDB7DEB7C45681
:10039000D1090FB6F894DEBF0FBECDBF5C0186ED6C
:1003A00090E00E9427011CAA1BAA80E3D82EFE0120
:1003B000F596DF018D2D1D928A95E9F7E12CF12C40
:1003C00007ED10E09801A50168ED70E0CE01C3963D
:1003D0000E94C900CE01C3960E9427011A82198289
:1003E000FE013396DF011D92DA94E9F7CE01019602
:1003F0000E943501CE0101960E94350180E090E017
:10040000CC59DF4F0FB6F894DEBF0FBECDBFDF91E2
:10041000CF911F910F91FF90EF90DF90BF90AF9021
:100420000895EF92FF920F931F93CF93DF93CDB771
:10043000DEB7E2970FB6F894DEBF0FBECDBFAB01BB
:100440001A821982FE01339620E3DF011D922A955C
:10045000E9F7E12CF12C07ED10E09C0160EE70E073
:10046000CE0101960E94C900CE0101960E9427018B
:100470000E945201E2960FB6F894DEBF0FBECDBFC8
:10048000DF91CF911F910F91FF90EF900895EF9220
:10049000FF920F931F93CF93DF93CDB7DEB7E29711
:1004A0000FB6F894DEBF0FBECDBFAB011A82198222
:1004B000FE01339620E3DF011D922A95E9F7E12C36
:1004C000F12C07ED10E09C0165EE70E0CE01019685
:1004D0000E94C900CE0101960E9427010E9452018C
:1004E000E2960FB6F894DEBF0FBECDBFDF91CF917D
:1004F0001F910F91FF90EF900895EF92FF920F934D
:100500001F93CF93DF93CDB7DEB7E2970FB6F89482
:10051000DEBF0FBECDBF1A821982FE01339620E3E3
:10052000DF011D922A95E9F7E12CF12C07ED10E08F
:100530009801AC016EEE70E0CE0101960E94C900F8
:10054000CE0101960E9427010E945201E2960FB649
:10055000F894DEBF0FBECDBFDF91CF911F910F91F9
:10056000FF90EF9008950F931F93CF93DF938B012C
:10057000EA01BA010E941102892B11F021E00DC09D
:10058000BE01C8010E944702892BC1F7CE010E941B
:100590007D0221E0892B09F420E0822F90E0DF9199
:1005A000CF911F910F910895EF92FF920F931F9398
:1005B000CF93DF93CDB7DEB7E2970FB6F894DEBFE7
:1005C0000FBECDBFAB011A821982FE01339620E324
:1005D000DF011D922A95E9F7E12CF12C07ED10E0DF
:1005E0009C016EEF70E0CE0101960E94C900CE0121
:1005F00001960E9427010E945201E2960FB6F894DC
:10060000DEBF0FBECDBFDF91CF911F910F91FF9045
:10061000EF900895EF92FF920F931F93CF93DF9384
:10062000CDB7DEB7E2970FB6F894DEBF0FBECDBFF1
:100630001A821982FE01339620E3DF011D922A956A
:10064000E9F7EE24E394F12C8B019C0168E071E062
:10065000CE0101960E94C900CE0101960E94270199
:100660000E945201E2960FB6F894DEBF0FBECDBFD6
:10067000DF91CF911F910F91FF90EF900895EF922E
:10068000FF920F931F93CF93DF93CDB7DEB7E2971F
:100690000FB6F894DEBF0FBECDBF8C01CB017A013F
:1006A0001A821982FE01339620E3DF011D922A95FA
:1006B000E9F74AE0BE016F5F7F4F0E94ED07A70197
:1006C000BE016F5F7F4FC8010E940A03E2960FB61A
:1006D000F894DEBF0FBECDBFDF91CF911F910F9178
:1006E000FF90EF900895EF92FF920F931F93CF9397
:1006F000DF93CDB7DEB7E2970FB6F894DEBF0FBE3B
:10070000CDBFAB011A821982FE01339620E3DF01CF
:100710001D922A95E9F7E12CF12C07ED10E09C01E0
:100720006CE171E0CE0101960E94C900CE010196F4
:100730000E9427010E947801E2960FB6F894DEBF6E
:100740000FBECDBFDF91CF911F910F91FF90EF9022
:1007500008950F931F93CF93DF938C0181E00E9444
:100760008600E80189918A3029F0882319F00E94D7
:100770009000F8CFDF91CF911F910F910895CF9303
:10078000DF93CDB7DEB72A970FB6F894DEBF0FBE62
:10079000CDBF1A821982FE01339628E0DF011D9237
:1007A0002A95E9F74AE0BE016F5F7F4F0E94ED078F
:1007B000CE0101960E94A9032A960FB6F894DEBFD7
:1007C0000FBECDBFDF91CF9108958FEF81BB0C9409
:1007D000490087309105E0F467307105C8F447E0BF
:1007E000489F9001499F300D1124620F731F660FBF
:1007F000771FFB01E45BFC4F80819181892B41F4E1
:10080000FB01E05AFF4F81E020813181232B09F465
:1008100080E090E008952F923F924F925F926F9206
:100820007F928F929F92AF92BF92CF92DF92EF9280
:10083000FF920F931F93CF93DF9300D000D0CDB7DB
:10084000DEB71B0190934B0380934A038CE493E043
:100850009A838983B5E36B2E712CE4E3F0E0FC838B
:10086000EB83AA24A394B12C07E0402E512C91E0F5
:10087000691A7108E981FA8112910291FA83E98378
:10088000F801EE0FFF1FE45BFC4FB182A08202155E
:10089000130509F4BAC0C801B2010E9493076C01A4
:1008A000CB01B2010E9493077C014C01FFEF8F1A2C
:1008B0009F0AB601C4010E94E903892BE1F027E0F9
:1008C000289DC001299D900D11248C0D9D1DEB814B
:1008D000FC81EE0FFF1FE052FD4F91838083880F54
:1008E000991FFC01E255FC4F118300838B819C8191
:1008F00001979C838B83470191E0891A9108B60187
:10090000C4010E94E903892B09F1E7E0E89DC001D9
:10091000E99D900D11248C0D9D1DEB81FC81EE0F46
:10092000FF1FE052FD4F91838083880F991FFC01C8
:10093000E255FC4F11830083FC01E45BFC4FB18264
:10094000A0828B819C8101979C838B8346019FEFC2
:10095000891A990AB401C7010E94E903892B11F190
:10096000E7E0EE9DC001EF9D900D1124880E991EC9
:10097000EB81FC81EE0FFF1FE052FD4F91828082E0
:10098000C401880F991FFC01E255FC4F11830083BD
:10099000FC01E45BFC4FB182A0828B819C810197BA
:1009A0009C838B8391E0C91AD108B601C7010E94CC
:1009B000E903892B39F48B819C81681679060CF048
:1009C00056CF23C0E7E0EE9DC001EF9D900D1124AE
:1009D000C80ED91EEB81FC81EE0FFF1FE052FD4FC8
:1009E000D182C082C601880F991FFC01E255FC4FDD
:1009F00011830083FC01E45BFC4FB182A0828B81F8
:100A00009C8101979C838B83D6CF0F900F900F9082
:100A10000F90DF91CF911F910F91FF90EF90DF909A
:100A2000CF90BF90AF909F908F907F906F905F908E
:100A30004F903F902F9008956F927F928F929F9248
:100A4000AF92BF92CF92DF92EF92FF920F931F93DC
:100A5000CF93DF937C018B01EEEAF3E0ACE4B3E0EB
:100A60008FEF9FEF819391931D921D9264E0E0318F
:100A7000F607C1F797E0949FE001959FD00D1124F0
:100A8000C20FD31F9E9D90019F9D300D1124BE016A
:100A9000C901800F911F0E940B04CE01880F991F7E
:100AA000FC01E255FC4F20813181FC01E45BFC4FED
:100AB00080819181892B09F464C0E5E3F0E007E0CF
:100AC00010E066246394712CA3E0CA2ED12CB2E00E
:100AD000AB2EB12C2F3F8FEF380709F44FC0CE015A
:100AE000B8010E9493077C01CB01B8010E949307D3
:100AF0004C01C901B8010E949307EC01CB01B80178
:100B00000E949307AC014F5F5F4F4815590541F4B0
:100B1000DF01AA0FBB1FA052BD4F1D921C9224C023
:100B200001978815990541F4DF01AA0FBB1FA05258
:100B3000BD4FAD92BC9218C0CE0101968E159F0597
:100B400041F4DF01AA0FBB1FA052BD4FCD92DC9232
:100B50000BC02197CE15DF0541F4DF01AA0FBB1FA3
:100B6000A052BD4F6D927C923197D901AA0FBB1F45
:100B7000A255BC4FE9012D913C91ACCFCF0101961C
:100B800011C08FEF9FEF90934B0380934A039FEF29
:100B900024E36CE0915020406040E1F700C0000089
:100BA0008FEF9FEFDF91CF911F910F91FF90EF900B
:100BB000DF90CF90BF90AF909F908F907F906F907D
:100BC0000895CF93DF93EC01AC0164E371E089E415
:100BD00091E00E94B302892B19F081E591E03BC0BE
:100BE000BE0188E791E00E94D402892B19F088E6C3
:100BF00091E031C0BE0182E991E00E94D402892BCC
:100C000019F082E891E027C0BE018CEA91E00E94D1
:100C1000D402892B19F08CE991E01DC0BE0182EC51
:100C200091E00E94D402892B19F082EB91E013C06D
:100C3000BE0188ED91E00E94D402892B19F088EC66
:100C400091E009C0BE0180EF91E00E94D4020097BC
:100C500031F080EE91E00E94A90381E090E0DF9105
:100C6000CF910895CF93DF93EB01AB01BC0188E7EF
:100C700091E00E943F03892B21F088EF91E00E94D0
:100C8000A903AE0161E070E082E991E00E943F03B8
:100C9000892B31F08FE092E0DF91CF910C94A90382
:100CA000DF91CF910895CF93DF93EC01AC016FEF0B
:100CB0007FEF88ED91E00E943F03892B21F087E2CE
:100CC00092E00E94A903AE016FEF7FEF80EF91E009
:100CD0000E943F03892B21F08CE392E00E94A9033C
:100CE000AE016FEF7FEF8CEA91E00E943F03892B0A
:100CF00021F081E592E00E94A903AE016FEF7FEF42
:100D000082EC91E00E943F03892B21F084E692E07F
:100D10000E94A903AE0161E070E082E991E00E94C7
:100D20003F03892B31F08FE092E0DF91CF910C945B
:100D3000A903DF91CF910895CF93DF93CDB7DEB7AD
:100D4000E2970FB6F894DEBF0FBECDBF1A821982AC
:100D5000FE01339680E3DF011D928A95E9F787E76C
:100D600092E00E942701CE0101960E94350163E8BE
:100D700072E0CE0101960E94E407892B81F7E2968A
:100D80000FB6F894DEBF0FBECDBFDF91CF910895AF
:100D90008F3F2FEF920711F485E090E00E9432061A
:100DA0000E949C0681E992E00C94A903AF92BF9245
:100DB000CF92DF92EF92FF920F931F93CF93DF9327
:100DC0005C016B017A01E901C8010E9453060E948F
:100DD0009C0687E992E00E94A903B80188ED91E0A2
:100DE0000E947303F50191838083B80180EF91E045
:100DF0000E947303F60191838083B8018CEA91E02D
:100E00000E947303F70191838083B80182EC91E023
:100E10000E94730399838883DF91CF911F910F9173
:100E2000FF90EF90DF90CF90BF90AF900895CF9359
:100E3000DF93CDB7DEB728970FB6F894DEBF0FBEAD
:100E4000CDBF14BA8FEF87BB0E9416010E94E50345
:100E500080E090E00E94BC018DEA92E00E94A9032C
:100E600080E090E00E94E105892BC9F12FEF34E387
:100E70008CE0215030408040E1F700C00000F0CF0E
:100E8000C801880F991FFC01E052FD4F7F0180814E
:100E900091810E94BF0360E070E0F7018081918141
:100EA0000E94C8060F5F1F4F0633110561F484E0EE
:100EB00090E00E94BF0360E070E084E090E00E9458
:100EC000C80607E310E006331105D4F2FFEF24E370
:100ED0003CE0F15020403040E1F700C000001A82B1
:100EE00019821C821B8218BA00E010E09E012B5F61
:100EF0003F4FAE01495F5F4FBE016F5F7F4FCE0135
:100F000003960E94D6062D813E814F8158856981C6
:100F10007A818B819C810E941C058C0182EC92E07D
:100F20000E94A903D0CF97FB072E16F4009407D098
:100F300077FD09D00E94A70707FC05D03EF49095E5
:100F400081959F4F0895709561957F4F0895AA1BD5
:100F5000BB1B51E107C0AA1FBB1FA617B70710F0A4
:100F6000A61BB70B881F991F5A95A9F780959095D6
:100F7000BC01CD010895FC0188279927E8942191AF
:100F80002032E9F3293010F02E30C8F32B3241F033
:100F90002D3239F4689404C00E94F807820F911D25
:100FA000219120532A30C0F31EF4909581959F4FD4
:100FB0000895FB01DC010D900020E9F711970190E5
:100FC0000D920020E1F70895FB01DC018D91019065
:100FD00080190110D9F3990B0895BB274A3031F4D9
:100FE000992322F4BDE2909581959F4F0C940108BE
:100FF0007AE0979F902D879F802D910D1124089561
:10100000BB27FB015527AA27880F991FAA1FA417E2
:1010100010F0A41B83955051B9F7A05DAA3308F0D6
:10102000A95DA193009779F7B111B1931192CB010A
:101030000C941A08DC01FC01672F71917723E1F70A
:10104000329704C07C916D9370836291AE17BF0795
:08105000C8F30895F894FFCFE6
:101058000100010001000100010001000100010080
:101068000000000000000100000000000100000076
:101078000100010001000100010000000000010062
:101088000000000000000100010001000100010053
:101098000100000001000100000000000000000045
:1010A8000000010001000100010000000100010032
:1010B80001004553503A0022005B005D0022537541
:1010C8006363657373220A007265737461727400D6
:1010D800737369640070617373776F726400415051
:1010E800537461727400636F6E6E6563740061643B
:1010F8006453656E736F720073656E736F725661B9
:101108006C756500726571756573740067657456F2
:10111800616C756500636C69656E745472616E7399
:101128006D697400617765736F6D6550617373776E
:101138006F72643132333435006A61736F6E4150B7
:1011480000436F756C646E27742063726561746503
:101158002073657276657200436F756C646E2774D0
:101168002063726561746520646972656374696F70
:101178006E00436F756C646E2774206372656174CA
:101188006520636C69656E7441636B00436F756CB1
:10119800646E27742063726561746520785F656E7C
:1011A8006400436F756C646E2774206372656174A4
:1011B8006520795F656E6400436F756C646E277493
:1011C8002063726561746520785F7374617274005E
:1011D800436F756C646E2774206372656174652053
:1011E800795F737461727400436F756C646E2774F1
:1011F8002073657420646972656374696F6E004357
:101208006F756C646E27742073657420636C6965F0
:101218006E7441636B0A00436F756C646E277420AB
:1012280073657420785F737461727400436F756CB2
:10123800646E27742073657420795F7374617274A7
:1012480000436F756C646E27742073657420785F33
:10125800656E6400436F756C646E277420736574E3
:1012680020795F656E640057616974696E672066EE
:101278006F7220536572766564436C69656E740A93
:101288000053656E740A005265636569766564206B
:1012980064657374696E6174696F6E0A0053746172
:1012A8007274696E6720736572766572202E2E2EB1
:1012B8000A00526561647920746F2073656E64203A
:1012C800646972656374696F6E73202E2E2E0A002E
:00000001FF
