S0120000436C69656E742D432B2B2E73726563ED
S11300000C942A000C943F000C943F000C943F0085
S11300100C943F000C943F000C943F000C943F0060
S11300200C943F000C943F000C943F000C943F0050
S11300300C943F000C943F000C943F000C943F0040
S11300400C943F000C943F000C943F000C943F0030
S11300500C943F0011241FBECFE5D4E0DEBFCDBF1A
S113006013E0A0E6B0E0E8EDFFE002C005900D92D9
S1130070AE30B107D9F70E94E9020C94EA070C9458
S113008000008F939F9388E290E071D080E382BB5D
S1130090939A939887E290E063D08F939F9388EE2E
S11300A093E05ED09F918F9180E382BB939A939863
S11300B087E290E055D08F939F9388EE93E050D0E1
S11300C09F918F9180E282BB939A939887E290E00C
S11300D047D08F939F9388EE93E042D09F918F9166
S11300E088E20CD08CE00AD081E008D08AEF95E059
S11300F037D086E003D09F918F9108958F939F937B
S1130100929810D087E290E02BD09F918F91089520
S11301108F939F93929A06D08BE290E021D09F9187
S11301208F9108958F939F9380E797E119D09F91C2
S11301308F918F9390B39F70807F890F82BB939A26
S113014093988F939F9380E797E10AD09F918F9123
S11301508F918295807F890F82BB939A939808959B
S113016001970000000000000000D1F708958F936C
S11301709F9386EE93E0F4DF9F918F910197B9F7F7
S113018008950F931F93CF93DF938C0181E00E9416
S11301907E00E80189918A3029F0882319F00E94B1
S11301A08800F8CFDF91CF911F910F910895CF93DD
S11301B0DF93CDB7DEB72A970FB6F894DEBF0FBE34
S11301C0CDBF1A821982FE01339628E0DF011D9209
S11301D02A95E9F74AE050E0BE016F5F7F4F0E9425
S11301E0CF03CE0101960E94C1002A960FB6F8945F
S11301F0DEBF0FBECDBFDF91CF9108958FEF81BBDE
S11302000C944100CF93DF93EC01AC0160E670E005
S113021085E790E00E945506892B19F08DE790E060
S11302203BC0BE018EE990E00E947606892B19F04E
S11302308EE890E031C0BE0188EB90E00E94760623
S1130240892B19F088EA90E027C0BE0182ED90E086
S11302500E947606892B19F082EC90E01DC0BE0145
S113026088EE90E00E947606892B19F088ED90E0E4
S113027013C0BE018EEF90E00E947606892B19F020
S11302808EEE90E009C0BE0186E191E00E94760600
S1130290009731F086E091E00E94C10081E090E097
S11302A0DF91CF910895CF93DF93FC019B018617D3
S11302B0970719F48EE191E019C0C4E0D0E00196EB
S11302C0BE010E94D6072817390719F481E391E08B
S11302D00DC0C9010196BE010E94D607E817F907AF
S11302E019F48DE391E002C088E491E0DF91CF91AD
S11302F00C94C100CF93DF93EC01BC018EE990E034
S11303000E941607892B21F083E591E00E94C10029
S1130310BE0188EB90E00E941607892B31F08AE633
S113032091E0DF91CF910C94C100DF91CF910895BA
S1130330CF92DF92EF92FF920F931F93CF93DF93AD
S11303406B017A01E901A801BC018EEF90E00E94E3
S1130350E106892B21F082E891E00E94C100A80106
S1130360B60186E191E00E94E106892B21F088E93B
S113037091E00E94C100A801B70182ED90E00E94C3
S1130380E106892B21F08EEA91E00E94C100A801C8
S1130390BE0188EE90E00E94E106892B21F082ECF8
S11303A091E00E94C100B80188EB90E00E9416071A
S11303B0892B61F08AE691E0DF91CF911F910F9133
S11303C0FF90EF90DF90CF900C94C100DF91CF911C
S11303D01F910F91FF90EF90DF90CF9008956F924F
S11303E07F928F929F92AF92BF92CF92DF92EF92C1
S11303F0FF920F931F93CF93DF93CDB7DEB7E297AE
S11304000FB6F894DEBF0FBECDBF6C015B014A018D
S1130410390178011A821982FE01339680E3DF01E3
S11304201D928A95E9F787019301A401B501C601DC
S11304300E949801BFEF21EE84E0B150204080403B
S1130440E1F700C00000C7010E948C07892B21F04E
S113045086ED91E00E94C100A701BE016F5F7F4F4E
S113046088EB90E00E941B07CE0101960E94C10018
S113047065EF71E0CE0101960E945703892B51F478
S11304809FEFA4E3BCE09150A040B040E1F700C06E
S11304900000C9CF80E090E0E2960FB6F894DEBF8A
S11304A00FBECDBFDF91CF911F910F91FF90EF90C1
S11304B0DF90CF90BF90AF909F908F907F906F9080
S11304C008958F929F92BF92CF92DF92EF92FF9204
S11304D00F931F93CF93DF93CDB7DEB7E2970FB699
S11304E0F894DEBF0FBECDBF6C017B0180E3B82E54
S11304F04E0123E0820E911CC7010E947A018FEF06
S113050091EEE4E081509040E040E1F700C000004B
S1130510C7010E948C07892B21F08EEF91E00E9485
S1130520C1001A821982F4012B2D11922A95E9F740
S1130530A701BE016F5F7F4F88EB90E00E941B070D
S1130540CE0101960E94C100B7018EE990E00E949D
S113055056078C010E94D7000F3F8FEF180741F018
S113056065EF71E0CE0101960E945703892B51F487
S11305709FEFE9E6F8E19150E040F040E1F700C078
S11305800000BACF0430110519F481E192E005C0EE
S11305900530110539F48CE192E00E94C1008FEF1F
S11305A09FEF05C0B801C6010E945301C801E2963D
S11305B00FB6F894DEBF0FBECDBFDF91CF911F9170
S11305C00F91FF90EF90DF90CF90BF909F908F900E
S11305D0089517BA0E9472040E94FE0084E392E018
S11305E00E94C10080E090E00E945E0582E492E0F7
S11305F00E94C10080E090E00E940201892B29F052
S11306008CE592E00E948304F5CF00E010E021E045
S113061030E046E050E060E070E080E090E00E946E
S1130620EF018EE692E00E94C10086B3811107C0FB
S11306308FE99FE00197F1F700C00000F6CF86B381
S1130640882339F08FE99FE00197F1F700C000009B
S1130650F6CFC0E0D0E088E892E00E94C10060E0FC
S113066070E0CE010E946102EC0186B3811107C0E3
S11306708FE99FE00197F1F700C00000F6CF86B341
S1130680882339F08FE99FE00197F1F700C000005B
S1130690F6CF9FEF24E38CE0915020408040E1F7B7
S11306A000C00000CF3F9FEFD907A9F69FCFDC0120
S11306B0FB012D91222341F09191992399F029175F
S11306C070F09217B0F70EC081E090E02081211104
S11306D002C080E090E091958195910908958FEF93
S11306E09FEF089581E090E00895CF93DF93DC01BC
S11306F0FD01E81BF90B2D912111FACFE80FF91F29
S1130700DB01EF019D01261B370B4D91442311F0B2
S11307104193F8CFFE01E20FF31F1082DF91CF91D6
S11307200895CF93DF93EC01DB01FD01E61BF70B8A
S11307302D91222311F02993F8CFE80FF91F10828D
S1130740DF91CF910895FC0120812B3229F02D32C5
S113075039F44FEF5FEF02C041E050E0019602C070
S113076041E050E0FC0120E030E09AE0819160ED4E
S1130770680F6A3060F4929FB001939F700D11244A
S1130780282F30E020533109260F371FEFCF249F45
S1130790C001259F900D349F900D11240895EF9270
S11307A0FF920F931F93CF93DF93CDB7DEB760977C
S11307B00FB6F894DEBF0FBECDBFFB018A014A30ED
S11307C0510511F497FD2BC0BC0140E09E012F5F41
S11307D03F4F7901D9016115710519F4E216F30649
S11307E079F4CB01B8010E94C2078A30910514F450
S11307F0805D01C0895AD9018C932F5F3F4FEACFA6
S1130800C9018E199F09442321F02DE2208301960A
S11308103196EA16FB0648F42E912193FACF662707
S11308207727681B790B41E0D1CF60960FB6F89417
S1130830DEBF0FBECDBFDF91CF911F910F91FF900F
S1130840EF900895AF92BF92CF92DF92EF92FF9212
S11308500F931F93CF93DF93EC015B016901452B49
S113086021F463EA72E00E947503B501CE010E948F
S113087075036BE172E0C6010E945703892B19F1DD
S113088066EA72E0CE010E94750368EA72E0CE0166
S11308900E947503B601CE010E94750368EA72E0F6
S11308A0CE010E947503EF2871F06AEA72E0CE016E
S11308B00E947503B801CE010E9475036CEA72E0D0
S11308C0CE010E9475036AE172E0CE01DF91CF91FF
S11308D01F910F91FF90EF90DF90CF90BF90AF905A
S11308E00C9475031BB888E18AB910BC83E389B9F9
S11308F086E880BD08955D9BFECF8CB908955F9B0B
S1130900FECF8CB10895CF93DF93EC0189918A30A7
S113091019F00E947B04FACF8AE0DF91CF910C9406
S11309207B040F931F93CF93DF93EC010E947F040A
S11309308E01F801EC1BFD0B8A3031F0F801819334
S11309408F010E947F04F5CFEC0FFD1F8083CE0141
S1130950DF91CF911F910F910C948304CF93DF9378
S1130960CDB7DEB7E2970FB6F894DEBF0FBECDBFAA
S11309701A821982FE01339680E3DF011D928A9563
S1130980E9F7CE0101960E9491046EEA72E0CE016D
S113099001960E945703E2960FB6F894DEBF0FBE8D
S11309A0CDBFDF91CF9108950F931F93CF93DF9322
S11309B0CDB7DEB7E2970FB6F894DEBF0FBECDBF5A
S11309C08C011A821982FE01339680E3DF011D92A5
S11309D08A95E9F7CE0101960E9491046BE172E0D9
S11309E0C8010E949103FE01319680E090E00196D7
S11309F021912232E1F7E1E0F0E0EC0FFD1FE80F76
S1130A00F91FD801CD01801B910B2191223211F0E5
S1130A102D93F8CFF801E80FF91F8AE08083E2965E
S1130A200FB6F894DEBF0FBECDBFDF91CF911F91FB
S1130A300F9108951F93CF93DF93CDB7DEB7C456BC
S1130A40D1090FB6F894DEBF0FBECDBF1CAA1BAAF6
S1130A5010E3FE01F596DF01812F1D928A95E9F7D7
S1130A60CE01C3960E9491041A821982FE01339624
S1130A70DF011D921A95E9F7F09680E090E0019667
S1130A8021912232E1F7E3E3F0E0EC0FFD1FE80FE0
S1130A90F91FDE011196CD012191223211F02D931F
S1130AA0FBCF0E94A303CC59DF4F0FB6F894DEBFEF
S1130AB00FBECDBFDF91CF911F910895AF92BF922A
S1130AC0DF92EF92FF920F931F93CF93DF93CDB7F3
S1130AD0DEB7C456D1090FB6F894DEBF0FBECDBF42
S1130AE05C018AE192E00E9483041CAA1BAA80E3B1
S1130AF0D82EFE01F596DF018D2D1D928A95E9F71A
S1130B00E12CF12C0BE112E09801A50169EB72E0F4
S1130B10CE01C3960E942204CE01C3960E94830490
S1130B201A821982FE013396DF011D92DA94E9F7E5
S1130B30CE0101960E949104CE0101960E94910477
S1130B4080E090E0CC59DF4F0FB6F894DEBF0FBEC3
S1130B50CDBFDF91CF911F910F91FF90EF90DF9068
S1130B60BF90AF900895EF92FF920F931F93CF938E
S1130B70DF93CDB7DEB7E2970FB6F894DEBF0FBEB2
S1130B80CDBFAB011A821982FE01339620E3DF0147
S1130B901D922A95E9F7E12CF12C0BE112E09C015E
S1130BA061EC72E0CE0101960E942204CE0101960E
S1130BB00E9483040E94AE04E2960FB6F894DEBF4E
S1130BC00FBECDBFDF91CF911F910F91FF90EF909A
S1130BD00895EF92FF920F931F93CF93DF93CDB7B6
S1130BE0DEB7E2970FB6F894DEBF0FBECDBFAB0100
S1130BF01A821982FE01339620E3DF011D922A95A1
S1130C00E9F7E12CF12C0BE112E09C0166EC72E0B7
S1130C10CE0101960E942204CE0101960E94830413
S1130C200E94AE04E2960FB6F894DEBF0FBECDBFAD
S1130C30DF91CF911F910F91FF90EF900895EF9264
S1130C40FF920F931F93CF93DF93CDB7DEB7E29755
S1130C500FB6F894DEBF0FBECDBF1A821982FE0113
S1130C60339620E3DF011D922A95E9F7E12CF12C5C
S1130C700BE112E09801AC0166E870E0CE01019648
S1130C800E942204CE0101960E9483040E94AE04B5
S1130C90E2960FB6F894DEBF0FBECDBFDF91CF91C1
S1130CA01F910F91FF90EF9008950F931F93CF938F
S1130CB0DF938B01EA01BA010E94B305892B11F07D
S1130CC021E00DC0BE01C8010E94E905892BC1F7CE
S1130CD0CE010E941F0621E0892B09F420E0822F17
S1130CE090E0DF91CF911F910F910895EF92FF92C1
S1130CF00F931F93CF93DF93CDB7DEB7E2970FB671
S1130D00F894DEBF0FBECDBFAB011A821982FE017B
S1130D10339620E3DF011D922A95E9F7E12CF12CAB
S1130D200BE112E09C0167ED72E0CE0101960E9496
S1130D302204CE0101960E9483040E94AE04E2962E
S1130D400FB6F894DEBF0FBECDBFDF91CF911F91D8
S1130D500F91FF90EF900895EF92FF920F931F93DE
S1130D60CF93DF93CDB7DEB7E2970FB6F894DEBF2B
S1130D700FBECDBF1A821982FE01339620E3DF0134
S1130D801D922A95E9F7EE24E394F12C8B019C0142
S1130D9061EE72E0CE0101960E942204CE0101961A
S1130DA00E9483040E94AE04E2960FB6F894DEBF5C
S1130DB00FBECDBFDF91CF911F910F91FF90EF90A8
S1130DC00895EF92FF920F931F93CF93DF93CDB7C4
S1130DD0DEB7E2970FB6F894DEBF0FBECDBF8C012D
S1130DE0CB017A011A821982FE01339620E3DF01D6
S1130DF01D922A95E9F74AE050E0BE016F5F7F4FEC
S1130E000E94CF03A701BE016F5F7F4FC8010E94FC
S1130E10AC06E2960FB6F894DEBF0FBECDBFDF91ED
S1130E20CF911F910F91FF90EF900895AB016DEE5C
S1130E3072E00C94AC06CF92DF92EF92FF920F9384
S1130E401F93CF93DF93CDB7DEB7E2970FB6F89435
S1130E50DEBF0FBECDBF6B011A821982FE0133962D
S1130E6020E3DF011D922A95E9F7E12CF12C0BE137
S1130E7012E09C0165EF72E0CE0101960E9422040B
S1130E80CE0101960E948304C6010E94D404E29616
S1130E900FB6F894DEBF0FBECDBFDF91CF911F9187
S1130EA00F91FF90EF90DF90CF900895EF92FF9213
S1130EB00F931F93CF93DF93CDB7DEB7E2970FB6AF
S1130EC0F894DEBF0FBECDBFAB011A821982FE01BA
S1130ED0339620E3DF011D922A95E9F7E12CF12CEA
S1130EE00BE112E09C0165EF72E0CE0101960E94D5
S1130EF02204CE0101960E9483040E941A05E29600
S1130F000FB6F894DEBF0FBECDBFDF91CF911F9116
S1130F100F91FF90EF900895EF92FF920F931F931C
S1130F20CF93DF93CDB7DEB7E2970FB6F894DEBF69
S1130F300FBECDBF1A821982FE01339620E3DF0172
S1130F401D922A95E9F7E12CF12C0BE112E09801AE
S1130F50AC016EEF72E0CE0101960E942204CE0134
S1130F6001960E9483040E94AE04E2960FB6F894A0
S1130F70DEBF0FBECDBFDF91CF911F910F91FF90C8
S1130F80EF900895AA1BBB1B51E107C0AA1FBB1F0A
S1130F90A617B70710F0A61BB70B881F991F5A9501
S1130FA0A9F780959095BC01CD01089597FB072E74
S1130FB016F4009407D077FD09D00E94C20707FCFD
S1130FC005D03EF4909581959F4F08957095619555
S10B0FD07F4F0895F894FFCF50
S1130FD8617765736F6D6550617373776F72643190
S1130FE832333435006A61736F6E415000436F7554
S1130FF86C646E277420636F6E6E65637400436F50
S1131008756C646E27742063726561746520646905
S113101872656374696F6E00436F756C646E2774D0
S11310282063726561746520636C69656E744163DD
S11310386B00436F756C646E27742063726561740A
S11310486520785F656E6400436F756C646E277401
S11310582063726561746520795F656E6400436F0F
S1131068756C646E27742063726561746520785F9B
S1131078737461727400436F756C646E27742063B3
S1131088726561746520795F737461727400436F6B
S11310986E74696E75652073747261696768740A21
S11310A8005475726E2072696768740A0054757208
S11310B86E206C6566740A005475726E20626163F2
S11310C86B0A00436F756C646E2774207365742013
S11310D8646972656374696F6E00436F756C646EDE
S11310E827742073657420636C69656E7441636B3F
S11310F80A00436F756C646E2774207365742078D6
S11311085F73746172740A00436F756C646E27743C
S11311182073657420795F73746172740A00436F75
S1131128756C646E27742073657420785F656E64CB
S11311380A00436F756C646E277420736574207994
S11311485F656E640A00436F756C646E277420745F
S113115872616E736D69742064657374696E617409
S1131168696F6E0A00726571756573740A00436F5E
S1131178756C646E2774207472616E736D69740A79
S11311880046696E6973686564210A00496D706F69
S1131198737369626C652064657374696E617469DC
S11311A86F6E0A005374617274696E67202E2E2E56
S11311B80A00436F6E6E656374696E6720746F20EE
S11311C8736572766572202E2E2E0A00526574722B
S11311D87920746F20636F6E6E6563740A005072B1
S11311E865737320423020746F20636F6E74696E68
S11311F87565202E2E2E0A0057616974696E672062
S1131208666F7220646972656374696F6E202E2E2E
S11312182E0A004553503A0022005B005D00225319
S1131228756363657373220A0072657374617274FB
S113123800737369640070617373776F726400413B
S11312485053746172740061646453656E736F7291
S11312580073656E736F7256616C756500726571A3
S1131268756573740067657456616C756500636CA5
S111127869656E745472616E736D6974000062
S9030000FC
